:020000040800F2
:100000000000022021060008F9050008FB05000891
:10001000FD050008FF0500080106000800000000BB
:1000200000000000000000000000000003060008BF
:100030000506000800000000070600080906000881
:1000400071060008710600087106000871060008B4
:1000500071060008710600087106000871060008A4
:100060007106000871060008710600087106000894
:100070007106000871060008710600087106000884
:100080007106000871060008710600087106000874
:100090007106000871060008710600087106000864
:1000A0007106000871060008710600087106000854
:1000B0007106000871060008710600087106000844
:1000C0007106000871060008710600087106000834
:1000D0007106000871060008710600087106000824
:1000E0007106000871060008710600087106000814
:1000F0007106000871060008710600087106000804
:1001000071060008710600087106000871060008F3
:1001100071060008710600087106000871060008E3
:1001200071060008710600087106000871060008D3
:1001300071060008000000000000000071060008C1
:1001400071060008710600087106000871060008B3
:1001500071060008710600087106000871060008A3
:100160007106000871060008710600087106000893
:100170007106000871060008000000000000000081
:08018000710600087106000879
:1001880010B5054C237833B9044B13B10448AFF3C9
:1001980000800123237010BD3C04002000000000F3
:1001A800BC0F000808B5034B1BB103490348AFF364
:1001B800008008BD0000000040040020BC0F0008BB
:1001C80053B94AB9002908BF00281CBF4FF0FF31B6
:1001D8004FF0FF3000F074B9ADF1080C6DE904CEB2
:1001E80000F006F8DDF804E0DDE9022304B070470A
:1001F8002DE9F047089E04468846002B40F085808C
:100208008A42154648D9B2FA82F24AB1C2F12007A9
:1002180001FA02F320FA07F7954047EA03089440E9
:100228004FEA154E230CB8FBFEF71FFA85FC0EFBB0
:10023800178843EA084307FB0CF1994209D9EB18E0
:1002480007F1FF3080F0E380994240F2E080023FFE
:100258002B445B1AA4B2B3FBFEF00EFB103344EA46
:10026800034400FB0CFCA44509D92C1900F1FF3309
:1002780080F0CB80A44540F2C88002382C4440EA84
:100288000740A4EB0C0400271EB1D4400023C6E9A4
:1002980000433946BDE8F087002A53D0B2FA82F20B
:1002A800002A40F0B680491B4FEA154E1FFA85F820
:1002B8000127B1FBFEFC230C0EFB1C1143EA014392
:1002C80008FB0CF1994207D9EB180CF1FF3002D268
:1002D800994200F2EC808446591AA3B2B1FBFEF0B1
:1002E8000EFB101443EA044408FB00F8A04507D9A4
:1002F8002C1900F1FF3302D2A04500F2DC80184629
:10030800A4EB080440EA0C40BEE78B4208D9002E53
:1003180078D00027C6E9000138463946BDE8F0879D
:10032800B3FA83F77FB98B4202D3824200F2BD80D1
:10033800841A61EB030301209846002EA9D0C6E970
:100348000048A6E7FFDEC7F12005BB4022FA05FCFE
:100358004CEA030C01FA07F420FA05F821FA05F330
:100368004FEA1C4E48EA0404B3FBFEF9210C0EFBCD
:1003780019331FFA8CF841EA034309FB08FA9A4536
:1003880002FA07F200FA07F10BD91CEB030309F193
:10039800FF3080F088809A4540F28580A9F10209F3
:1003A8006344A3EB0A03A4B2B3FBFEF00EFB1033C5
:1003B80044EA034400FB08F8A04508D91CEB0404F0
:1003C80000F1FF336BD2A04569D90238644440EA92
:1003D8000940A4EB0804A0FB02894C45C6464B46DD
:1003E80054D351D0002E69D0B1EB0E0264EB030454
:1003F80004FA05F522FA07F3FC401D43C6E9005448
:10040800002746E73746304643E7184637E70746AA
:100418001FE7C2F1200320FA03F7954001FA02F022
:1004280021FA03F34FEA154E3843010CB3FBFEF7EC
:100438001FFA85F80EFB173341EA034107FB08F35F
:100448008B4204FA02F407D9691807F1FF3C28D255
:100458008B4226D9023F2944CB1A81B2B3FBFEF066
:100468000EFB103341EA034100FB08F38B4207D926
:10047800691800F1FF3C10D28B420ED9023829448A
:10048800C91A40EA074714E74145ABD2B8EB020E58
:1004980069EB0C0201381346A4E76046F0E71846FA
:1004A80095E76746D8E781467BE7384645E7ACF1EC
:1004B800020C2B4410E702382C4421E73746E8E6C3
:1004C800704700BF82B0002100910B4B1A6B42F0BD
:1004D80080021A631A6B02F080020092009A01915E
:1004E8001A6B42F001021A631B6B03F001030193BC
:1004F800019B02B0704700BF0038024072B6FEE7A9
:1005080000B595B03022002108A800F091FC002326
:10051800039304930593069307930193204A116C60
:1005280041F080511164126C02F080520192019ADC
:1005380002931C4B1A6842F480421A601B6803F449
:1005480080430293029B012308934FF4803309935D
:1005580002220E924FF480030F9304231093A821D4
:1005680011911292139308A800F02EF998B90F234D
:10057800039302230493002305934FF4A053069397
:100588004FF480530793052103A800F07DFB20B9A1
:1005980015B05DF804FBFFF7B1FFFFF7AFFF00BF31
:1005A800003802400070004008B500F085F8FFF7F9
:1005B800A7FFFFF787FFFEE782B0002100910B4BF2
:1005C8005A6C42F480425A645A6C02F48042009297
:1005D800009A01911A6C42F080521A641B6C03F065
:1005E80080530193019B02B0704700BF003802405E
:1005F800FEE7FEE7FEE7FEE7FEE770477047704755
:1006080008B500F073F808BD024B4FF000629A601D
:10061800704700BF00ED00E0DFF834D0002103E0B0
:100628000C4B5B58435004310B480C4B42189A4210
:10063800F6D30B4A02E0002342F8043B094B9A42E6
:10064800F9D3FFF7E1FF00F0CFFBFFF7ADFF7047ED
:1006580000000220FC0F0008000000203C040020DD
:100668003C04002080040020FEE7000010B504468A
:100678000E4B18784FF47A73B3FBF0F30C4A1068FA
:10068800B0FBF3F000F08AF868B90F2C01D901200B
:100698000AE0002221464FF0FF3000F04BF8054BEE
:1006A8001C60002000E0012010BD00BF04000020F5
:1006B800000000200800002008B50B4B1A6842F41F
:1006C80000721A601A6842F480621A601A6842F46A
:1006D80080721A60032000F01BF80020FFF7C6FFA5
:1006E800FFF76AFF002008BD003C0240034A11687A
:1006F800034B1B780B441360704700BF580400205D
:1007080004000020014B1868704700BF58040020FF
:10071800074AD36823F4E0631B041B0C000200F4AF
:10072800E060184340F0BF6040F40030D06070478C
:1007380000ED00E030B4174BDB68C3F30223C3F1CC
:100748000704042C28BF04241D1D062D01D9033BD2
:1007580000E000234FF0FF3505FA04F421EA040114
:10076800994005FA03F322EA03031943002809DB39
:100778000901C9B200F1604000F5614080F800133A
:1007880030BC704700F00F000901C9B2024B195480
:10079800F6E700BF00ED00E014ED00E00138B0F12D
:1007A800807F0AD2064B5860064AF02182F823104F
:1007B8000020986007221A6070470120704700BF28
:1007C80010E000E000ED00E0002800F0D98170B5ED
:1007D80082B00446036813F0010F3BD0A64B9B6818
:1007E80003F00C03042B2CD0A34B9B6803F00C03E1
:1007F800082B21D06368B3F5803F4FD0B3F5A02F05
:1008080052D09D4B1A6822F480321A601A6822F47A
:1008180080221A606368002B50D0FFF773FF0546EB
:10082800954B1B6813F4003F14D1FFF76BFF401B77
:100838006428F5D90320AAE18F4B5B6813F4800F75
:10084800D8D08D4B1B6813F4003F03D06368002B8E
:1008580000F09881236813F0020F54D0864B9B68F0
:1008680013F00C0F3ED0844B9B6803F00C03082B4D
:1008780033D0E368002B67D0804B01221A60FFF762
:1008880041FF05467C4B1B6813F0020F53D1FFF75D
:1008980039FF401B0228F5D9032078E1764A13680E
:1008A80043F480331360B5E7734B1A6842F480222F
:1008B8001A601A6842F480321A60ABE7FFF722FF29
:1008C80005466D4B1B6813F4003FC3D0FFF71AFFB2
:1008D800401B6428F5D9032059E1674B5B6813F482
:1008E800800FC6D1644B1B6813F0020F03D0E36876
:1008F800012B40F04981604A136823F0F80321690D
:1009080043EAC1031360236813F0080F40D06369FA
:1009180063B35B4B01221A60FFF7F4FE0546564BA2
:100928005B6F13F0020F33D1FFF7ECFE401B022878
:10093800F5D903202BE1504A136823F0F803216905
:1009480043EAC1031360DEE74C4B00221A60FFF74D
:10095800D9FE0546484B1B6813F0020FD3D0FFF7AA
:10096800D1FE401B0228F5D9032010E1444B002298
:100978001A60FFF7C7FE05463F4B5B6F13F0020F87
:1009880006D0FFF7BFFE401B0228F5D90320FEE082
:10099800236813F0040F78D0374B1B6C13F0805F7B
:1009A80033D100230193344B1A6C42F080521A64FD
:1009B8001B6C03F080530193019B0125314B1B688D
:1009C80013F4807F23D0A368012B34D0052B38D0B3
:1009D800294B1A6F22F001021A671A6F22F00402DB
:1009E8001A67A368002B36D0FFF78CFE0646224B09
:1009F8001B6F13F0020F47D1FFF784FE801B41F2F3
:100A080088339842F3D90320C1E00025D6E71D4A70
:100A1800136843F480731360FFF774FE0646194B9E
:100A28001B6813F4807FCED1FFF76CFE801B022871
:100A3800F5D90320ABE0104A136F43F001031367A5
:100A4800CFE70D4B1A6F42F004021A671A6F42F093
:100A580001021A67C5E7FFF755FE0646064B1B6FEE
:100A680013F0020F10D0FFF74DFE801B41F28833C0
:100A78009842F3D903208AE0003802400000474238
:100A8800800E474200700040E5B9A369002B7DD075
:100A9800464A926802F00C02082A51D0022B17D05D
:100AA800434B00221A60FFF72DFE04463F4B1B689C
:100AB80013F0007F42D0FFF725FE001B0228F5D96E
:100AC800032064E0394A136C23F080531364DCE795
:100AD800374B00221A60FFF715FE0546334B1B689B
:100AE80013F0007F06D0FFF70DFE401B0228F5D952
:100AF80003204CE0E369226A1343626A43EA8213E3
:100B0800A26A5208013A43EA0243E26A43EA0263EC
:100B1800264A5360264B01221A60FFF7F3FD04466C
:100B2800224B1B6813F0007F06D1FFF7EBFD001B7B
:100B38000228F5D903202AE0002028E0002026E03A
:100B4800012B26D0194B5B6803F48001E2699142BE
:100B580021D103F03F02216A8A421ED1616A47F619
:100B6800C0721A408A421AD103F44032A16A8A42FA
:100B780017D103F07063E26A934214D1002006E0B3
:100B880001207047012002E0012000E0002002B0AF
:100B980070BD0120FBE70120F9E70120F7E70120FC
:100BA800F5E70120F3E70120F1E700BF0038024034
:100BB80060004742314B9B6803F00C03042B58D06C
:100BC800082B58D170B52D4B5A6802F03F025B686C
:100BD80013F4800F2AD0294B5868C0F388100546B3
:100BE800002643011B1A66EB0604A10141EA936142
:100BF8009801C01A61EB0401CB0043EA5073C400AA
:100C08001946601946EB01014B0243EAD0534402EE
:100C1800204619463346FFF7D3FA184B5B68C3F3EF
:100C2800014301335B00B0FBF3F070BD134B586810
:100C3800C0F388100546002643011B1A66EB06041C
:100C4800A10141EA93619801C01A61EB0401CB004C
:100C580043EA5073C4001946601946EB01018B0240
:100C680043EA90538402204619463346FFF7A8FA10
:100C7800D3E7034870470348704700BF0038024075
:100C880000127A000024F400002800F09B8070B560
:100C98000446504B1B6803F00F038B4208D2CBB2BB
:100CA8004C4A1370136803F00F038B4240F08C809A
:100CB800236813F0020F17D013F0040F04D0464A2C
:100CC800936843F4E0539360236813F0080F04D04B
:100CD800414A936843F4604393603F4A936823F022
:100CE800F003A068034393600D46236813F0010FD7
:100CF80032D06368012B21D09A1E012A25D9364AA1
:100D0800126812F0020F61D033498A6822F0030298
:100D180013438B60FFF7F6FC06462F4B9B6803F0E6
:100D28000C036268B3EB820F16D0FFF7EBFC801B55
:100D380041F288339842F0D9032042E0264A1268EB
:100D480012F4003FE0D101203BE0234A126812F080
:100D5800007FD9D1012034E01E4B1B6803F00F033C
:100D6800AB4207D9EAB21B4B1A701B6803F00F039A
:100D7800AB422DD1236813F0040F06D0164A9368AE
:100D880023F4E053E1680B439360236813F0080FE2
:100D980007D0114A936823F46043216943EAC103E9
:100DA8009360FFF707FF0C4B9B68C3F303130B4AD1
:100DB800D35CD8400A4B18600A4B1868FFF756FCFA
:100DC800002070BD012070470120FAE70120F8E7F4
:100DD8000120F6E7003C024000380240D40F00082A
:100DE800000000200800002070B50D4E0D4D761B48
:100DF800B61006D00024013455F8043B9847A642A3
:100E0800F9D1094E094D761B00F0D4F8B61006D07A
:100E18000024013455F8043B9847A642F9D170BD27
:100E2800F00F0008F00F0008F80F0008F00F000896
:100E3800F0B4860746D0541E002A3CD0CAB20346F6
:100E480002E014F1FF3436D303F8012B9D07F8D1E3
:100E5800032C29D9CDB245EA05250F2C45EA0545CD
:100E680033D9A4F11006360903F1200707EB06175A
:100E780003F1100242E9045542E902551032BA4220
:100E8800F8D1721C14F00C0F03EB021204F00F06D9
:100E980013D0331F23F003030433134442F8045BD5
:100EA8009342FBD106F003042CB1C9B21C4403F8E9
:100EB800011B9C42FBD1F0BC704734461346002C02
:100EC800F3D1F8E714460346C2E71A462646E0E798
:100ED800024B13B1024800F005B87047000000004B
:100EE800F90E0008002301461A46184600F01EB8FD
:100EF80038B50A4C0A4D641BA4100AD004F180438B
:100F0800013B05EB8305013C55F804399847002C53
:100F1800F9D1BDE8384000F053B800BFFC0F000815
:100F2800F80F0008704700BF704700BF2DE9F04177
:100F38001E4C0546206890461F460E46FFF7F2FFF6
:100F48001B4B1A68D2F8483133B35A6820681F2AF5
:100F580027DC4DB9911C01325A6043F82160FFF734
:100F6800E3FF0020BDE8F08103EB82010124C1F812
:100F7800888004FA02FED3F88841022D44EA0E0C58
:100F8800C3F888C1C1F80871E4D1D3F88C114EEACE
:100F98000104C3F88C41DDE702F5A673C2F84831B5
:100FA800D3E7FFF7C1FF4FF0FF30DBE7380400203D
:100FB800E40F0008F8B500BFF8BC08BC9E467047AF
:0C0FC800F8B500BFF8BC08BC9E4670479E
:100FD40000000000000000000102030406070809E5
:040FE40010000020D9
:080FE80010F2FF7F0100000080
:080FF000D90E0008AD01000854
:040FF8008901000863
:100FFC000024F400010000001000000000000000BC
:10100C0000000000FC02002064030020CC03002040
:10101C0000000000000000000000000000000000C4
:10102C0000000000000000000000000000000000B4
:10103C0000000000000000000000000000000000A4
:10104C000000000000000000000000000000000094
:10105C000000000000000000000000000000000084
:10106C000000000000000000000000000000000074
:10107C000000000000000000000000000000000064
:10108C000000000000000000000000000000000054
:10109C000000000000000000000000000000000044
:1010AC000000000000000000010000000000000033
:1010BC000E33CDAB34126DE6ECDE05000B000000F8
:1010CC000000000000000000000000000000000014
:1010DC000000000000000000000000000000000004
:1010EC0000000000000000000000000000000000F4
:1010FC0000000000000000000000000000000000E4
:0C142C0000000000000000005C04002034
:0400000508000621C8
:00000001FF
